:020000040800F2
:1000000000000120CD0F00081D0600081F06000893
:10001000210600082306000825060008000000004D
:10002000000000000000000000000000270600089B
:1000300029060008000000002B0600082D06000815
:100040001D1000081D1000081D1000081D100008DC
:100050001D1000081D1000081D1000081D100008CC
:100060001D1000081D1000081D1000081D100008BC
:100070001D1000081D1000081D1000081D100008AC
:100080001D1000081D1000081D10000800000000D1
:100090000000000000000000000000001D1000082B
:1000A0001D1000081D1000081D1000081D1000087C
:1000B0001D1000081D1000081D1000081D1000086C
:1000C0001D1000081D1000081D1000081D1000085C
:1000D0001D1000081D1000081D1000080000000081
:1000E0001D1000081D1000081D1000080000000071
:1000F0000000000000000000000000001D100008CB
:10010000000000001D1000081D1000081D10000850
:1001100000000000000000000000000000000000DF
:100120001D1000081D1000081D1000081D100008FB
:100130001D1000080000000000000000000000008A
:100140000000000000000000000000001D1000087A
:100150001D1000081D1000081D1000081D100008CB
:100160001D1000081D100008000000000000000025
:10017000000000000000000000000000000000007F
:10018000000000001D10000800000000000000003A
:040190001D10000836
:1001940010B5054C237833B9044B13B10448AFF3BD
:1001A40000800123237010BD0C000020000000001B
:1001B4007810000808B5034B1BB103490348AFF39B
:1001C400008008BD00000000100000207810000826
:1001D40053B94AB9002908BF00281CBF4FF0FF31AA
:1001E4004FF0FF3000F06EB9ADF1080C6DE904CEAC
:1001F40000F006F8DDF804E0DDE9022304B07047FE
:100204002DE9F047089D04468C46002B40F083807E
:100214008A42174647D9B2FA82F242B1C2F12000AB
:1002240024FA00F09140974040EA010C94404FEAD0
:100234001748230CBCFBF8F61FFA87FE08FB16C10F
:1002440043EA014306FB0EF1994209D9FB1806F172
:10025400FF3080F01981994240F21681023E3B44FE
:100264005B1AA4B2B3FBF8F008FB103344EA03446E
:1002740000FB0EFEA64509D93C1900F1FF3380F0BE
:100284000581A64540F2028102383C4440EA06401A
:10029400A4EB0E0400261DB1D4400023C5E900439D
:1002A4003146BDE8F08702B9FFDEB2FA82F2002AD5
:1002B40050D1CB1B4FEA174E1FFA87F80126B3FB28
:1002C400FEFC210C0EFB1C3341EA034108FB0CF33A
:1002D4008B4207D979180CF1FF3002D28B4200F21D
:1002E400E9808446C91AA3B2B1FBFEF00EFB1011DB
:1002F40043EA014408FB00F8A04507D93C1900F182
:10030400FF3302D2A04500F2D9801846A4EB0804BA
:1003140040EA0C40BFE78B4209D9002D00F0B180C0
:100324000026C5E9000130463146BDE8F087B3FA3E
:1003340083F6002E4AD18B4202D3824200F2B88067
:10034400841A61EB030101208C46002DA8D0C5E975
:10035400004CA5E7C2F1200320FA03F6974001FA06
:1003640002F04FEA174ED9403043030CB1FBFEF6BE
:100374001FFA87F80EFB161143EA014306FB08F146
:10038400994204FA02F409D9FB1806F1FF3C80F003
:100394008D80994240F28A80023E3B445B1A81B2CE
:1003A400B3FBFEF00EFB103341EA034100FB08F3FC
:1003B4008B4207D9791800F1FF3C73D28B4271D973
:1003C40002383944CB1A40EA064678E7C6F1200CD5
:1003D40003FA06F422FA0CF31C4320FA0CF701FA90
:1003E40006F34FEA144E21FA0CF11F433B0CB1FB08
:1003F400FEF91FFA84F80EFB191143EA014109FBC7
:1004040008FA8A4502FA06F200FA06F308D96118D6
:1004140009F1FF3048D28A4546D9A9F1020921449D
:10042400A1EB0A01BFB2B1FBFEF00EFB101147EACB
:10043400014700FB08F8B84507D9E71900F1FF3177
:100444002ED2B8452CD90238274440EA0940A7EBFC
:100454000807A0FB02894F45C64649461AD317D060
:100464005DB1B3EB0E0267EB010707FA0CFCF24037
:100474004CEA0202F740C5E9002700263146BDE8F0
:10048400F0872E4628460BE70646E9E61846FDE6C1
:100494004345E5D2B8EB020E69EB04010138DFE70E
:1004A4000846D2E760468DE78146B9E7664675E7B8
:1004B40030464AE7ACF1020C394413E702383C44B5
:1004C40024E700BF704700BF72B6FEE700B595B0E1
:1004D4003022002108A800F0C5FD002303930493F3
:1004E4000593069307930193204A116C41F08051C0
:1004F4001164126C02F080520192019A02931C4A18
:10050400136823F4404343F400431360136803F473
:1005140040430293029B012308934FF480330993D1
:1005240002230E934FF480020F921922109290220C
:10053400119212930423139308A800F095F880B93C
:100544000F23039302210491002305934FF4805257
:100554000692079303A800F0D3FA20B915B05DF80A
:1005640004FBFFF7B1FFFFF7AFFF00BF0038024005
:100574000070004008B500F0DDFCFFF7A7FF00F0B5
:100584000BF84FF40071034800F048FC642000F0BD
:10059400FDFCF6E70004024030B589B00024039462
:1005A40004940594069407940094194B1A6B42F032
:1005B40080021A631A6B02F080020092009A01947E
:1005C4001A6B42F002021A631A6B02F002020192E1
:1005D400019A02941A6B42F001021A631B6B03F036
:1005E40001030293029B0B4D22464FF4C06128463F
:1005F40000F00EFC4FF4C0630393012304930594AD
:10060400069403A9284600F02BFB09B030BD00BFB7
:100614000038024000040240FEE7FEE7FEE7FEE782
:10062400FEE770477047704708B500F09DFC08BDB1
:1006340082B0002100910B4B5A6C42F480425A6400
:100644005A6C02F480420092009A01911A6C42F0B2
:1006540080521A641B6C03F080530193019B02B017
:10066400704700BF00380240002800F0DF8170B5F9
:1006740082B00446036813F0010F3BD0A64B9B687D
:1006840003F00C03042B2CD0A34B9B6803F00C0346
:10069400082B21D06368B3F5803F4FD0B3F5A02F6A
:1006A40052D09D4B1A6822F480321A601A6822F4E0
:1006B40080221A606368002B50D000F061FC05466C
:1006C400954B1B6813F4003F14D100F059FC401BF8
:1006D4006428F5D90320B0E18F4B5B6813F4800FD5
:1006E400D8D08D4B1B6813F4003F03D06368002BF4
:1006F40000F09E81236813F0020F54D0864B9B6850
:1007040013F00C0F3ED0844B9B6803F00C03082BB2
:1007140033D0E368002B67D0804B01221A6000F0CD
:100724002FFC05467C4B1B6813F0020F53D100F0DD
:1007340027FC401B0228F5D903207EE1764A136882
:1007440043F480331360B5E7734B1A6842F4802294
:100754001A601A6842F480321A60ABE700F010FCA9
:1007640005466D4B1B6813F4003FC3D000F008FC32
:10077400401B6428F5D903205FE1674B5B6813F4E1
:10078400800FC6D1644B1B6813F0020F03D0E368DB
:10079400012B40F04F81604A136823F0F80321696C
:1007A40043EAC1031360236813F0080F40D0636960
:1007B40063B35B4B01221A6000F0E2FB0546564B23
:1007C4005B6F13F0020F33D100F0DAFB401B0228F9
:1007D400F5D9032031E1504A136823F0F803216965
:1007E40043EAC1031360DEE74C4B00221A6000F0B9
:1007F400C7FB0546484B1B6813F0020FD3D000F02B
:10080400BFFB401B0228F5D9032016E1444B00220C
:100814001A6000F0B5FB05463F4B5B6F13F0020F07
:1008240006D000F0ADFB401B0228F5D9032004E1FB
:10083400236813F0040F78D0374B1B6C13F0805FE0
:100844000DD100230193344B1A6C42F080521A6488
:100854001B6C03F080530193019B012500E00025EC
:10086400304B1B6813F4807F21D0A368012B32D056
:10087400052B36D0284B1A6F22F001021A671A6F23
:1008840022F004021A67A368002B34D000F078FB2E
:100894000646214B1B6F13F0020F45D100F070FB8D
:1008A400801B41F288339842F3D90320C5E01D4AE6
:1008B400136843F48073136000F062FB0646194B1F
:1008C4001B6813F4807FD0D100F05AFB801B0228F0
:1008D400F5D90320B1E0104A136F43F00103136705
:1008E400D1E70D4B1A6F42F004021A671A6F42F0F7
:1008F40001021A67C7E700F043FB0646064B1B6F6D
:1009040013F0020F10D000F03BFB801B41F2883340
:100914009842F3D9032090E0003802400000474297
:10092400800E474200700040EDB9A369002B00F02F
:100934008380494A926802F00C02082A51D0022BA3
:1009440017D0464B00221A6000F01AFB0446424BB3
:100954001B6813F0007F42D000F012FB001B02283A
:10096400F5D9032069E03C4A136C23F080531364E7
:10097400DBE73A4B00221A6000F002FB0546364BD7
:100984001B6813F0007F06D000F0FAFA401B02281F
:10099400F5D9032051E0E369226A1343626A43EA0A
:1009A4008213A26A5208013A43EA0243E26A43EA22
:1009B4000263294A5360294B01221A6000F0E0FACD
:1009C4000446254B1B6813F0007F06D100F0D8FACB
:1009D400001B0228F5D903202FE000202DE0002081
:1009E4002BE0012B2BD01C4B5B6803F48001E269E4
:1009F400914226D103F03F02216A8A4223D1616ADF
:100A040047F6C0721A40B2EB811F1ED103F4403185
:100A1400A26A5208013AB1EB024F18D103F0706395
:100A2400E26AB3EB026F14D1002006E001207047A4
:100A3400012002E0012000E0002002B070BD01208E
:100A4400FBE70120F9E70120F7E70120F5E70120A2
:100A5400F3E70120F1E700BF00380240600047429D
:100A6400F8B5244B9B6803F00C03042B3DD0082BF2
:100A74003DD1204B5A6802F03F025B6813F4800FAB
:100A840012D01C4B5968C1F3881100231A48A1FBEA
:100A94000001FFF79DFB174B5B68C3F30143013370
:100AA4005B00B0FBF3F023E0124B5B68C3F38813E5
:100AB4005C010025E41A65F10005AE0146EA94667E
:100AC400A701381B66EB0501CC0044EA5074C5004D
:100AD400E81844F100018B0243EA90538402204653
:100AE40019460023FFF774FBD5E7034800E00348E9
:100AF400F8BD00BF0038024040787D010024F400B6
:100B0400002800F09B8070B50D4604464F4B1B68CF
:100B140003F007038B4208D2CBB24C4A137013681C
:100B240003F007038B4240F08B80236813F0020F1D
:100B340017D013F0040F04D0454A936843F4E053EC
:100B44009360236813F0080F04D0414A936843F478
:100B5400604393603E4A936823F0F003A1680B431B
:100B64009360236813F0010F32D06368012B21D006
:100B74009A1E012A25D9364A126812F0020F61D052
:100B840033498A6822F0030213438B6000F0F8F9BA
:100B940006462F4B9B6803F00C036268B3EB820F8D
:100BA40016D000F0EDF9801B41F288339842F0D959
:100BB400032042E0264A126812F4003FE0D10120EB
:100BC4003BE0234A126812F0007FD9D1012034E0BF
:100BD4001E4B1B6803F00703AB4207D9EAB21B4B59
:100BE4001A701B6803F00703AB422DD1236813F07E
:100BF400040F06D0164A936823F4E053E1680B43CC
:100C04009360236813F0080F07D0114A936823F404
:100C14006043216943EAC1039360FFF721FF0C4B52
:100C24009B68C3F303130B4AD35CD8400A4B186088
:100C34000A4B186800F058F9002070BD0120704775
:100C44000120FAE70120F8E70120F6E7003C024022
:100C54000038024090100008080000200400002022
:100C640000230F2B00F2CB80F0B482B05DE08668E5
:100C74005F000324BC4026EA0406CC68BC4034432D
:100C84008460466826EA02064C68C4F300129A405F
:100C94003243426057E0DC08083450F8247003F013
:100CA400070296000F22B24027EA02070A69B240FF
:100CB4003A4340F824205AE0042200E00022B240E3
:100CC4003A4302344E4E46F824204E4A1468EA430E
:100CD40024EA05064F6817F4803F01D045EA04066C
:100CE400484C2660646802EA04064F6817F4003F23
:100CF40001D045EA0406434C6660A46802EA04068F
:100D04004F6817F4801F01D045EA04063D4CA660E5
:100D1400E46822404E6816F4001F01D045EA04023C
:100D2400384CE26001330F2B66D801229A400C68DC
:100D340004EA020532EA0404F4D14C6804F0030422
:100D4400013C012C93D94A6802F00302032A09D01A
:100D5400C4685E000322B24024EA02048A68B240F6
:100D64002243C2604A6802F00302022A93D0046854
:100D74005E000322B24024EA02044A6802F003023D
:100D8400B240224302604A6812F0805FCAD0002257
:100D940001921D4A546C44F480445464526C02F42D
:100DA40080420192019A9C08A61C154A52F82670AA
:100DB40003F0030296000F22B24027EA0207134A07
:100DC40090423FF47BAF02F5806290420ED002F570
:100DD400806290420CD002F5806290420AD002F503
:100DE400806290423FF468AF072268E7012266E719
:100DF400022264E7032262E702B0F0BC7047704746
:100E040000380140003C014000380240000002402C
:100E14000AB181617047090481617047436901EA3D
:100E2400030221EA030141EA0241816170470000A3
:100E3400074AD36823F4E0631B041B0C000200F48C
:100E4400E060034343F0BF6343F40033D36070476F
:100E540000ED00E030B4174BDB68C3F30223C3F1A9
:100E64000704042C28BF04241D1D062D18D9033B98
:100E74004FF0FF3505FA04F421EA0401994005FA1C
:100E840003F322EA0303194300280BDB0901C9B267
:100E940000F1604000F5614080F8001330BC7047F9
:100EA4000023E5E700F00F000901C9B2024B195411
:100EB400F4E700BF00ED00E014ED00E00138B0F10C
:100EC400807F0AD2064B5860064AF02182F823102C
:100ED4000020986007221A6070470120704700BF05
:100EE40010E000E000ED00E010B504460E4B187869
:100EF4004FF47A73B3FBF0F30C4A1068B0FBF3F0D1
:100F0400FFF7DCFF68B90F2C01D901200AE00022A9
:100F140021464FF0FF30FFF79DFF054B1C6000207A
:100F240000E0012010BD00BF0000002008000020E8
:100F34000400002008B50B4B1A6842F400721A60D2
:100F44001A6842F480621A601A6842F480721A6065
:100F54000320FFF76DFF0020FFF7C6FFFFF768FBD4
:100F6400002008BD003C0240034A1168034B1B7873
:100F74000B441360704700BF2800002000000020CD
:100F8400014B1868704700BF2800002038B504469C
:100F9400FFF7F6FF0546B4F1FF3F02D0044B1B7880
:100FA4001C44FFF7EDFF401BA042FAD338BD00BF3D
:100FB40000000020034AD2F8883043F47003C2F8DA
:100FC4008830704700ED00E0DFF834D00D480E495A
:100FD4000E4A002302E0D458C4500433C4188C428F
:100FE400F9D30B4A0B4C002301E013600432A242F4
:100FF400FBD3FFF7DFFF00F011F8FFF7BBFA7047F0
:1010040000000120000000200C000020B0100008A7
:101014000C0000202C000020FEE7000070B50D4DF0
:101024000D4C641BA4100026A64209D10B4D0C4C98
:1010340000F020F8641BA4100026A64205D170BD60
:1010440055F8043B98470136EEE755F8043B9847BA
:101054000136F2E7A8100008A8100008A81000083C
:10106400AC10000802440346934200D1704703F8D1
:10107400011BF9E7F8B500BFF8BC08BC9E467047F1
:0C108400F8B500BFF8BC08BC9E467047E1
:101090000000000000000000010203040607080928
:0810A00064F1FF7F0100000074
:0410A800B901000882
:0410AC0095010008A2
:0C10B00001000000100000000024F4000B
:0400000508000FCD13
:00000001FF
